{
	"data": {
		"bytecode": {
			"linkReferences": {},
			"object": "6080604052348015600e575f5ffd5b5061082c8061001c5f395ff3fe608060405234801561000f575f5ffd5b506004361061003f575f3560e01c806341fe746814610043578063b653b57914610074578063db01fea814610090575b5f5ffd5b61005d60048036038101906100589190610261565b6100ac565b60405161006b92919061030b565b60405180910390f35b61008e60048036038101906100899190610339565b61016d565b005b6100aa60048036038101906100a591906104a3565b61019d565b005b60605f5f5f84815481106100c3576100c26104fd565b5b905f5260205f2090600202019050805f0181600101548180546100e590610557565b80601f016020809104026020016040519081016040528092919081815260200182805461011190610557565b801561015c5780601f106101335761010080835404028352916020019161015c565b820191905f5260205f20905b81548152906001019060200180831161013f57829003601f168201915b505050505091509250925050915091565b5f5f8381548110610181576101806104fd565b5b905f5260205f2090600202019050818160010181905550505050565b6101a5610204565b82815f0181905250818160200181815250505f81908060018154018082558091505060019003905f5260205f2090600202015f909190919091505f820151815f0190816101f29190610727565b50602082015181600101555050505050565b6040518060400160405280606081526020015f81525090565b5f604051905090565b5f5ffd5b5f5ffd5b5f819050919050565b6102408161022e565b811461024a575f5ffd5b50565b5f8135905061025b81610237565b92915050565b5f6020828403121561027657610275610226565b5b5f6102838482850161024d565b91505092915050565b5f81519050919050565b5f82825260208201905092915050565b8281835e5f83830152505050565b5f601f19601f8301169050919050565b5f6102ce8261028c565b6102d88185610296565b93506102e88185602086016102a6565b6102f1816102b4565b840191505092915050565b6103058161022e565b82525050565b5f6040820190508181035f83015261032381856102c4565b905061033260208301846102fc565b9392505050565b5f5f6040838503121561034f5761034e610226565b5b5f61035c8582860161024d565b925050602061036d8582860161024d565b9150509250929050565b5f5ffd5b5f5ffd5b7f4e487b71000000000000000000000000000000000000000000000000000000005f52604160045260245ffd5b6103b5826102b4565b810181811067ffffffffffffffff821117156103d4576103d361037f565b5b80604052505050565b5f6103e661021d565b90506103f282826103ac565b919050565b5f67ffffffffffffffff8211156104115761041061037f565b5b61041a826102b4565b9050602081019050919050565b828183375f83830152505050565b5f610447610442846103f7565b6103dd565b9050828152602081018484840111156104635761046261037b565b5b61046e848285610427565b509392505050565b5f82601f83011261048a57610489610377565b5b813561049a848260208601610435565b91505092915050565b5f5f604083850312156104b9576104b8610226565b5b5f83013567ffffffffffffffff8111156104d6576104d561022a565b5b6104e285828601610476565b92505060206104f38582860161024d565b9150509250929050565b7f4e487b71000000000000000000000000000000000000000000000000000000005f52603260045260245ffd5b7f4e487b71000000000000000000000000000000000000000000000000000000005f52602260045260245ffd5b5f600282049050600182168061056e57607f821691505b6020821081036105815761058061052a565b5b50919050565b5f819050815f5260205f209050919050565b5f6020601f8301049050919050565b5f82821b905092915050565b5f600883026105e37fffffffffffffffffffffffffffffffffffffffffffffffffffffffffffffffff826105a8565b6105ed86836105a8565b95508019841693508086168417925050509392505050565b5f819050919050565b5f61062861062361061e8461022e565b610605565b61022e565b9050919050565b5f819050919050565b6106418361060e565b61065561064d8261062f565b8484546105b4565b825550505050565b5f5f905090565b61066c61065d565b610677818484610638565b505050565b5b8181101561069a5761068f5f82610664565b60018101905061067d565b5050565b601f8211156106df576106b081610587565b6106b984610599565b810160208510156106c8578190505b6106dc6106d485610599565b83018261067c565b50505b505050565b5f82821c905092915050565b5f6106ff5f19846008026106e4565b1980831691505092915050565b5f61071783836106f0565b9150826002028217905092915050565b6107308261028c565b67ffffffffffffffff8111156107495761074861037f565b5b6107538254610557565b61075e82828561069e565b5f60209050601f83116001811461078f575f841561077d578287015190505b610787858261070c565b8655506107ee565b601f19841661079d86610587565b5f5b828110156107c45784890151825560018201915060208501945060208101905061079f565b868310156107e157848901516107dd601f8916826106f0565b8355505b6001600288020188555050505b50505050505056fea2646970667358221220190beee08a209ff6289a200cf2b3a989849c83bda17cec49ecf132e72c4ea48264736f6c634300081e0033",
			"opcodes": "PUSH1 0x80 PUSH1 0x40 MSTORE CALLVALUE DUP1 ISZERO PUSH1 0xE JUMPI PUSH0 PUSH0 REVERT JUMPDEST POP PUSH2 0x82C DUP1 PUSH2 0x1C PUSH0 CODECOPY PUSH0 RETURN INVALID PUSH1 0x80 PUSH1 0x40 MSTORE CALLVALUE DUP1 ISZERO PUSH2 0xF JUMPI PUSH0 PUSH0 REVERT JUMPDEST POP PUSH1 0x4 CALLDATASIZE LT PUSH2 0x3F JUMPI PUSH0 CALLDATALOAD PUSH1 0xE0 SHR DUP1 PUSH4 0x41FE7468 EQ PUSH2 0x43 JUMPI DUP1 PUSH4 0xB653B579 EQ PUSH2 0x74 JUMPI DUP1 PUSH4 0xDB01FEA8 EQ PUSH2 0x90 JUMPI JUMPDEST PUSH0 PUSH0 REVERT JUMPDEST PUSH2 0x5D PUSH1 0x4 DUP1 CALLDATASIZE SUB DUP2 ADD SWAP1 PUSH2 0x58 SWAP2 SWAP1 PUSH2 0x261 JUMP JUMPDEST PUSH2 0xAC JUMP JUMPDEST PUSH1 0x40 MLOAD PUSH2 0x6B SWAP3 SWAP2 SWAP1 PUSH2 0x30B JUMP JUMPDEST PUSH1 0x40 MLOAD DUP1 SWAP2 SUB SWAP1 RETURN JUMPDEST PUSH2 0x8E PUSH1 0x4 DUP1 CALLDATASIZE SUB DUP2 ADD SWAP1 PUSH2 0x89 SWAP2 SWAP1 PUSH2 0x339 JUMP JUMPDEST PUSH2 0x16D JUMP JUMPDEST STOP JUMPDEST PUSH2 0xAA PUSH1 0x4 DUP1 CALLDATASIZE SUB DUP2 ADD SWAP1 PUSH2 0xA5 SWAP2 SWAP1 PUSH2 0x4A3 JUMP JUMPDEST PUSH2 0x19D JUMP JUMPDEST STOP JUMPDEST PUSH1 0x60 PUSH0 PUSH0 PUSH0 DUP5 DUP2 SLOAD DUP2 LT PUSH2 0xC3 JUMPI PUSH2 0xC2 PUSH2 0x4FD JUMP JUMPDEST JUMPDEST SWAP1 PUSH0 MSTORE PUSH1 0x20 PUSH0 KECCAK256 SWAP1 PUSH1 0x2 MUL ADD SWAP1 POP DUP1 PUSH0 ADD DUP2 PUSH1 0x1 ADD SLOAD DUP2 DUP1 SLOAD PUSH2 0xE5 SWAP1 PUSH2 0x557 JUMP JUMPDEST DUP1 PUSH1 0x1F ADD PUSH1 0x20 DUP1 SWAP2 DIV MUL PUSH1 0x20 ADD PUSH1 0x40 MLOAD SWAP1 DUP2 ADD PUSH1 0x40 MSTORE DUP1 SWAP3 SWAP2 SWAP1 DUP2 DUP2 MSTORE PUSH1 0x20 ADD DUP3 DUP1 SLOAD PUSH2 0x111 SWAP1 PUSH2 0x557 JUMP JUMPDEST DUP1 ISZERO PUSH2 0x15C JUMPI DUP1 PUSH1 0x1F LT PUSH2 0x133 JUMPI PUSH2 0x100 DUP1 DUP4 SLOAD DIV MUL DUP4 MSTORE SWAP2 PUSH1 0x20 ADD SWAP2 PUSH2 0x15C JUMP JUMPDEST DUP3 ADD SWAP2 SWAP1 PUSH0 MSTORE PUSH1 0x20 PUSH0 KECCAK256 SWAP1 JUMPDEST DUP2 SLOAD DUP2 MSTORE SWAP1 PUSH1 0x1 ADD SWAP1 PUSH1 0x20 ADD DUP1 DUP4 GT PUSH2 0x13F JUMPI DUP3 SWAP1 SUB PUSH1 0x1F AND DUP3 ADD SWAP2 JUMPDEST POP POP POP POP POP SWAP2 POP SWAP3 POP SWAP3 POP POP SWAP2 POP SWAP2 JUMP JUMPDEST PUSH0 PUSH0 DUP4 DUP2 SLOAD DUP2 LT PUSH2 0x181 JUMPI PUSH2 0x180 PUSH2 0x4FD JUMP JUMPDEST JUMPDEST SWAP1 PUSH0 MSTORE PUSH1 0x20 PUSH0 KECCAK256 SWAP1 PUSH1 0x2 MUL ADD SWAP1 POP DUP2 DUP2 PUSH1 0x1 ADD DUP2 SWAP1 SSTORE POP POP POP POP JUMP JUMPDEST PUSH2 0x1A5 PUSH2 0x204 JUMP JUMPDEST DUP3 DUP2 PUSH0 ADD DUP2 SWAP1 MSTORE POP DUP2 DUP2 PUSH1 0x20 ADD DUP2 DUP2 MSTORE POP POP PUSH0 DUP2 SWAP1 DUP1 PUSH1 0x1 DUP2 SLOAD ADD DUP1 DUP3 SSTORE DUP1 SWAP2 POP POP PUSH1 0x1 SWAP1 SUB SWAP1 PUSH0 MSTORE PUSH1 0x20 PUSH0 KECCAK256 SWAP1 PUSH1 0x2 MUL ADD PUSH0 SWAP1 SWAP2 SWAP1 SWAP2 SWAP1 SWAP2 POP PUSH0 DUP3 ADD MLOAD DUP2 PUSH0 ADD SWAP1 DUP2 PUSH2 0x1F2 SWAP2 SWAP1 PUSH2 0x727 JUMP JUMPDEST POP PUSH1 0x20 DUP3 ADD MLOAD DUP2 PUSH1 0x1 ADD SSTORE POP POP POP POP POP JUMP JUMPDEST PUSH1 0x40 MLOAD DUP1 PUSH1 0x40 ADD PUSH1 0x40 MSTORE DUP1 PUSH1 0x60 DUP2 MSTORE PUSH1 0x20 ADD PUSH0 DUP2 MSTORE POP SWAP1 JUMP JUMPDEST PUSH0 PUSH1 0x40 MLOAD SWAP1 POP SWAP1 JUMP JUMPDEST PUSH0 PUSH0 REVERT JUMPDEST PUSH0 PUSH0 REVERT JUMPDEST PUSH0 DUP2 SWAP1 POP SWAP2 SWAP1 POP JUMP JUMPDEST PUSH2 0x240 DUP2 PUSH2 0x22E JUMP JUMPDEST DUP2 EQ PUSH2 0x24A JUMPI PUSH0 PUSH0 REVERT JUMPDEST POP JUMP JUMPDEST PUSH0 DUP2 CALLDATALOAD SWAP1 POP PUSH2 0x25B DUP2 PUSH2 0x237 JUMP JUMPDEST SWAP3 SWAP2 POP POP JUMP JUMPDEST PUSH0 PUSH1 0x20 DUP3 DUP5 SUB SLT ISZERO PUSH2 0x276 JUMPI PUSH2 0x275 PUSH2 0x226 JUMP JUMPDEST JUMPDEST PUSH0 PUSH2 0x283 DUP5 DUP3 DUP6 ADD PUSH2 0x24D JUMP JUMPDEST SWAP2 POP POP SWAP3 SWAP2 POP POP JUMP JUMPDEST PUSH0 DUP2 MLOAD SWAP1 POP SWAP2 SWAP1 POP JUMP JUMPDEST PUSH0 DUP3 DUP3 MSTORE PUSH1 0x20 DUP3 ADD SWAP1 POP SWAP3 SWAP2 POP POP JUMP JUMPDEST DUP3 DUP2 DUP4 MCOPY PUSH0 DUP4 DUP4 ADD MSTORE POP POP POP JUMP JUMPDEST PUSH0 PUSH1 0x1F NOT PUSH1 0x1F DUP4 ADD AND SWAP1 POP SWAP2 SWAP1 POP JUMP JUMPDEST PUSH0 PUSH2 0x2CE DUP3 PUSH2 0x28C JUMP JUMPDEST PUSH2 0x2D8 DUP2 DUP6 PUSH2 0x296 JUMP JUMPDEST SWAP4 POP PUSH2 0x2E8 DUP2 DUP6 PUSH1 0x20 DUP7 ADD PUSH2 0x2A6 JUMP JUMPDEST PUSH2 0x2F1 DUP2 PUSH2 0x2B4 JUMP JUMPDEST DUP5 ADD SWAP2 POP POP SWAP3 SWAP2 POP POP JUMP JUMPDEST PUSH2 0x305 DUP2 PUSH2 0x22E JUMP JUMPDEST DUP3 MSTORE POP POP JUMP JUMPDEST PUSH0 PUSH1 0x40 DUP3 ADD SWAP1 POP DUP2 DUP2 SUB PUSH0 DUP4 ADD MSTORE PUSH2 0x323 DUP2 DUP6 PUSH2 0x2C4 JUMP JUMPDEST SWAP1 POP PUSH2 0x332 PUSH1 0x20 DUP4 ADD DUP5 PUSH2 0x2FC JUMP JUMPDEST SWAP4 SWAP3 POP POP POP JUMP JUMPDEST PUSH0 PUSH0 PUSH1 0x40 DUP4 DUP6 SUB SLT ISZERO PUSH2 0x34F JUMPI PUSH2 0x34E PUSH2 0x226 JUMP JUMPDEST JUMPDEST PUSH0 PUSH2 0x35C DUP6 DUP3 DUP7 ADD PUSH2 0x24D JUMP JUMPDEST SWAP3 POP POP PUSH1 0x20 PUSH2 0x36D DUP6 DUP3 DUP7 ADD PUSH2 0x24D JUMP JUMPDEST SWAP2 POP POP SWAP3 POP SWAP3 SWAP1 POP JUMP JUMPDEST PUSH0 PUSH0 REVERT JUMPDEST PUSH0 PUSH0 REVERT JUMPDEST PUSH32 0x4E487B7100000000000000000000000000000000000000000000000000000000 PUSH0 MSTORE PUSH1 0x41 PUSH1 0x4 MSTORE PUSH1 0x24 PUSH0 REVERT JUMPDEST PUSH2 0x3B5 DUP3 PUSH2 0x2B4 JUMP JUMPDEST DUP2 ADD DUP2 DUP2 LT PUSH8 0xFFFFFFFFFFFFFFFF DUP3 GT OR ISZERO PUSH2 0x3D4 JUMPI PUSH2 0x3D3 PUSH2 0x37F JUMP JUMPDEST JUMPDEST DUP1 PUSH1 0x40 MSTORE POP POP POP JUMP JUMPDEST PUSH0 PUSH2 0x3E6 PUSH2 0x21D JUMP JUMPDEST SWAP1 POP PUSH2 0x3F2 DUP3 DUP3 PUSH2 0x3AC JUMP JUMPDEST SWAP2 SWAP1 POP JUMP JUMPDEST PUSH0 PUSH8 0xFFFFFFFFFFFFFFFF DUP3 GT ISZERO PUSH2 0x411 JUMPI PUSH2 0x410 PUSH2 0x37F JUMP JUMPDEST JUMPDEST PUSH2 0x41A DUP3 PUSH2 0x2B4 JUMP JUMPDEST SWAP1 POP PUSH1 0x20 DUP2 ADD SWAP1 POP SWAP2 SWAP1 POP JUMP JUMPDEST DUP3 DUP2 DUP4 CALLDATACOPY PUSH0 DUP4 DUP4 ADD MSTORE POP POP POP JUMP JUMPDEST PUSH0 PUSH2 0x447 PUSH2 0x442 DUP5 PUSH2 0x3F7 JUMP JUMPDEST PUSH2 0x3DD JUMP JUMPDEST SWAP1 POP DUP3 DUP2 MSTORE PUSH1 0x20 DUP2 ADD DUP5 DUP5 DUP5 ADD GT ISZERO PUSH2 0x463 JUMPI PUSH2 0x462 PUSH2 0x37B JUMP JUMPDEST JUMPDEST PUSH2 0x46E DUP5 DUP3 DUP6 PUSH2 0x427 JUMP JUMPDEST POP SWAP4 SWAP3 POP POP POP JUMP JUMPDEST PUSH0 DUP3 PUSH1 0x1F DUP4 ADD SLT PUSH2 0x48A JUMPI PUSH2 0x489 PUSH2 0x377 JUMP JUMPDEST JUMPDEST DUP2 CALLDATALOAD PUSH2 0x49A DUP5 DUP3 PUSH1 0x20 DUP7 ADD PUSH2 0x435 JUMP JUMPDEST SWAP2 POP POP SWAP3 SWAP2 POP POP JUMP JUMPDEST PUSH0 PUSH0 PUSH1 0x40 DUP4 DUP6 SUB SLT ISZERO PUSH2 0x4B9 JUMPI PUSH2 0x4B8 PUSH2 0x226 JUMP JUMPDEST JUMPDEST PUSH0 DUP4 ADD CALLDATALOAD PUSH8 0xFFFFFFFFFFFFFFFF DUP2 GT ISZERO PUSH2 0x4D6 JUMPI PUSH2 0x4D5 PUSH2 0x22A JUMP JUMPDEST JUMPDEST PUSH2 0x4E2 DUP6 DUP3 DUP7 ADD PUSH2 0x476 JUMP JUMPDEST SWAP3 POP POP PUSH1 0x20 PUSH2 0x4F3 DUP6 DUP3 DUP7 ADD PUSH2 0x24D JUMP JUMPDEST SWAP2 POP POP SWAP3 POP SWAP3 SWAP1 POP JUMP JUMPDEST PUSH32 0x4E487B7100000000000000000000000000000000000000000000000000000000 PUSH0 MSTORE PUSH1 0x32 PUSH1 0x4 MSTORE PUSH1 0x24 PUSH0 REVERT JUMPDEST PUSH32 0x4E487B7100000000000000000000000000000000000000000000000000000000 PUSH0 MSTORE PUSH1 0x22 PUSH1 0x4 MSTORE PUSH1 0x24 PUSH0 REVERT JUMPDEST PUSH0 PUSH1 0x2 DUP3 DIV SWAP1 POP PUSH1 0x1 DUP3 AND DUP1 PUSH2 0x56E JUMPI PUSH1 0x7F DUP3 AND SWAP2 POP JUMPDEST PUSH1 0x20 DUP3 LT DUP2 SUB PUSH2 0x581 JUMPI PUSH2 0x580 PUSH2 0x52A JUMP JUMPDEST JUMPDEST POP SWAP2 SWAP1 POP JUMP JUMPDEST PUSH0 DUP2 SWAP1 POP DUP2 PUSH0 MSTORE PUSH1 0x20 PUSH0 KECCAK256 SWAP1 POP SWAP2 SWAP1 POP JUMP JUMPDEST PUSH0 PUSH1 0x20 PUSH1 0x1F DUP4 ADD DIV SWAP1 POP SWAP2 SWAP1 POP JUMP JUMPDEST PUSH0 DUP3 DUP3 SHL SWAP1 POP SWAP3 SWAP2 POP POP JUMP JUMPDEST PUSH0 PUSH1 0x8 DUP4 MUL PUSH2 0x5E3 PUSH32 0xFFFFFFFFFFFFFFFFFFFFFFFFFFFFFFFFFFFFFFFFFFFFFFFFFFFFFFFFFFFFFFFF DUP3 PUSH2 0x5A8 JUMP JUMPDEST PUSH2 0x5ED DUP7 DUP4 PUSH2 0x5A8 JUMP JUMPDEST SWAP6 POP DUP1 NOT DUP5 AND SWAP4 POP DUP1 DUP7 AND DUP5 OR SWAP3 POP POP POP SWAP4 SWAP3 POP POP POP JUMP JUMPDEST PUSH0 DUP2 SWAP1 POP SWAP2 SWAP1 POP JUMP JUMPDEST PUSH0 PUSH2 0x628 PUSH2 0x623 PUSH2 0x61E DUP5 PUSH2 0x22E JUMP JUMPDEST PUSH2 0x605 JUMP JUMPDEST PUSH2 0x22E JUMP JUMPDEST SWAP1 POP SWAP2 SWAP1 POP JUMP JUMPDEST PUSH0 DUP2 SWAP1 POP SWAP2 SWAP1 POP JUMP JUMPDEST PUSH2 0x641 DUP4 PUSH2 0x60E JUMP JUMPDEST PUSH2 0x655 PUSH2 0x64D DUP3 PUSH2 0x62F JUMP JUMPDEST DUP5 DUP5 SLOAD PUSH2 0x5B4 JUMP JUMPDEST DUP3 SSTORE POP POP POP POP JUMP JUMPDEST PUSH0 PUSH0 SWAP1 POP SWAP1 JUMP JUMPDEST PUSH2 0x66C PUSH2 0x65D JUMP JUMPDEST PUSH2 0x677 DUP2 DUP5 DUP5 PUSH2 0x638 JUMP JUMPDEST POP POP POP JUMP JUMPDEST JUMPDEST DUP2 DUP2 LT ISZERO PUSH2 0x69A JUMPI PUSH2 0x68F PUSH0 DUP3 PUSH2 0x664 JUMP JUMPDEST PUSH1 0x1 DUP2 ADD SWAP1 POP PUSH2 0x67D JUMP JUMPDEST POP POP JUMP JUMPDEST PUSH1 0x1F DUP3 GT ISZERO PUSH2 0x6DF JUMPI PUSH2 0x6B0 DUP2 PUSH2 0x587 JUMP JUMPDEST PUSH2 0x6B9 DUP5 PUSH2 0x599 JUMP JUMPDEST DUP2 ADD PUSH1 0x20 DUP6 LT ISZERO PUSH2 0x6C8 JUMPI DUP2 SWAP1 POP JUMPDEST PUSH2 0x6DC PUSH2 0x6D4 DUP6 PUSH2 0x599 JUMP JUMPDEST DUP4 ADD DUP3 PUSH2 0x67C JUMP JUMPDEST POP POP JUMPDEST POP POP POP JUMP JUMPDEST PUSH0 DUP3 DUP3 SHR SWAP1 POP SWAP3 SWAP2 POP POP JUMP JUMPDEST PUSH0 PUSH2 0x6FF PUSH0 NOT DUP5 PUSH1 0x8 MUL PUSH2 0x6E4 JUMP JUMPDEST NOT DUP1 DUP4 AND SWAP2 POP POP SWAP3 SWAP2 POP POP JUMP JUMPDEST PUSH0 PUSH2 0x717 DUP4 DUP4 PUSH2 0x6F0 JUMP JUMPDEST SWAP2 POP DUP3 PUSH1 0x2 MUL DUP3 OR SWAP1 POP SWAP3 SWAP2 POP POP JUMP JUMPDEST PUSH2 0x730 DUP3 PUSH2 0x28C JUMP JUMPDEST PUSH8 0xFFFFFFFFFFFFFFFF DUP2 GT ISZERO PUSH2 0x749 JUMPI PUSH2 0x748 PUSH2 0x37F JUMP JUMPDEST JUMPDEST PUSH2 0x753 DUP3 SLOAD PUSH2 0x557 JUMP JUMPDEST PUSH2 0x75E DUP3 DUP3 DUP6 PUSH2 0x69E JUMP JUMPDEST PUSH0 PUSH1 0x20 SWAP1 POP PUSH1 0x1F DUP4 GT PUSH1 0x1 DUP2 EQ PUSH2 0x78F JUMPI PUSH0 DUP5 ISZERO PUSH2 0x77D JUMPI DUP3 DUP8 ADD MLOAD SWAP1 POP JUMPDEST PUSH2 0x787 DUP6 DUP3 PUSH2 0x70C JUMP JUMPDEST DUP7 SSTORE POP PUSH2 0x7EE JUMP JUMPDEST PUSH1 0x1F NOT DUP5 AND PUSH2 0x79D DUP7 PUSH2 0x587 JUMP JUMPDEST PUSH0 JUMPDEST DUP3 DUP2 LT ISZERO PUSH2 0x7C4 JUMPI DUP5 DUP10 ADD MLOAD DUP3 SSTORE PUSH1 0x1 DUP3 ADD SWAP2 POP PUSH1 0x20 DUP6 ADD SWAP5 POP PUSH1 0x20 DUP2 ADD SWAP1 POP PUSH2 0x79F JUMP JUMPDEST DUP7 DUP4 LT ISZERO PUSH2 0x7E1 JUMPI DUP5 DUP10 ADD MLOAD PUSH2 0x7DD PUSH1 0x1F DUP10 AND DUP3 PUSH2 0x6F0 JUMP JUMPDEST DUP4 SSTORE POP JUMPDEST PUSH1 0x1 PUSH1 0x2 DUP9 MUL ADD DUP9 SSTORE POP POP POP JUMPDEST POP POP POP POP POP POP JUMP INVALID LOG2 PUSH5 0x6970667358 0x22 SLT KECCAK256 NOT SIGNEXTEND RETURNCONTRACT 0xE0 DUP11 KECCAK256 SWAP16 0xF6 0x28 SWAP11 KECCAK256 0xC CALLCODE 0xB3 0xA9 DUP10 DUP5 SWAP13 DUP4 0xBD LOG1 PUSH29 0xEC49ECF132E72C4EA48264736F6C634300081E00330000000000000000 "
		},
		"gasEstimates": {
			"creation": {
				"codeDepositCost": "418400",
				"executionCost": "453",
				"totalCost": "418853"
			},
			"external": {
				"Altera_Forca(uint256,uint256)": "infinite",
				"Criar_Monstros(string,uint256)": "infinite",
				"Pegar_Monstro(uint256)": "infinite"
			}
		},
		"methodIdentifiers": {
			"Altera_Forca(uint256,uint256)": "b653b579",
			"Criar_Monstros(string,uint256)": "db01fea8",
			"Pegar_Monstro(uint256)": "41fe7468"
		}
	},
	"abi": [
		{
			"inputs": [
				{
					"internalType": "uint256",
					"name": "_id",
					"type": "uint256"
				},
				{
					"internalType": "uint256",
					"name": "nova_forca",
					"type": "uint256"
				}
			],
			"name": "Altera_Forca",
			"outputs": [],
			"stateMutability": "nonpayable",
			"type": "function"
		},
		{
			"inputs": [
				{
					"internalType": "string",
					"name": "_nome",
					"type": "string"
				},
				{
					"internalType": "uint256",
					"name": "_forca",
					"type": "uint256"
				}
			],
			"name": "Criar_Monstros",
			"outputs": [],
			"stateMutability": "nonpayable",
			"type": "function"
		},
		{
			"inputs": [
				{
					"internalType": "uint256",
					"name": "_id",
					"type": "uint256"
				}
			],
			"name": "Pegar_Monstro",
			"outputs": [
				{
					"internalType": "string",
					"name": "",
					"type": "string"
				},
				{
					"internalType": "uint256",
					"name": "",
					"type": "uint256"
				}
			],
			"stateMutability": "view",
			"type": "function"
		}
	]
}